{
  "_format": "hh-sol-artifact-1",
  "contractName": "Whitelist",
  "sourceName": "contracts/Whitelist.sol",
  "abi": [
    {
      "inputs": [
        {
          "internalType": "uint8",
          "name": "_maxWhiteListedAddresses",
          "type": "uint8"
        }
      ],
      "stateMutability": "nonpayable",
      "type": "constructor"
    },
    {
      "inputs": [],
      "name": "addAddressToWhiteList",
      "outputs": [],
      "stateMutability": "nonpayable",
      "type": "function"
    },
    {
      "inputs": [],
      "name": "maxWhiteListedAddresses",
      "outputs": [
        {
          "internalType": "uint8",
          "name": "",
          "type": "uint8"
        }
      ],
      "stateMutability": "view",
      "type": "function"
    },
    {
      "inputs": [],
      "name": "numAddressWhiteListed",
      "outputs": [
        {
          "internalType": "uint8",
          "name": "",
          "type": "uint8"
        }
      ],
      "stateMutability": "view",
      "type": "function"
    },
    {
      "inputs": [
        {
          "internalType": "address",
          "name": "",
          "type": "address"
        }
      ],
      "name": "whiteListedAddresses",
      "outputs": [
        {
          "internalType": "bool",
          "name": "",
          "type": "bool"
        }
      ],
      "stateMutability": "view",
      "type": "function"
    }
  ],
  "bytecode": "0x608060405234801561001057600080fd5b506040516105c83803806105c883398181016040528101906100329190610067565b806000806101000a81548160ff021916908360ff160217905550506100b4565b6000815190506100618161009d565b92915050565b60006020828403121561007957600080fd5b600061008784828501610052565b91505092915050565b600060ff82169050919050565b6100a681610090565b81146100b157600080fd5b50565b610505806100c36000396000f3fe608060405234801561001057600080fd5b506004361061004c5760003560e01c806303108fe41461005157806313f277441461006f57806388c67b1414610079578063d8e773a214610097575b600080fd5b6100596100c7565b6040516100669190610389565b60405180910390f35b6100776100d8565b005b610081610259565b60405161008e9190610389565b60405180910390f35b6100b160048036038101906100ac91906102a1565b61026c565b6040516100be919061032e565b60405180910390f35b60008054906101000a900460ff1681565b600160003373ffffffffffffffffffffffffffffffffffffffff1673ffffffffffffffffffffffffffffffffffffffff16815260200190815260200160002060009054906101000a900460ff1615610165576040517f08c379a000000000000000000000000000000000000000000000000000000000815260040161015c90610349565b60405180910390fd5b60008054906101000a900460ff1660ff16600260009054906101000a900460ff1660ff16106101c9576040517f08c379a00000000000000000000000000000000000000000000000000000000081526004016101c090610369565b60405180910390fd5b60018060003373ffffffffffffffffffffffffffffffffffffffff1673ffffffffffffffffffffffffffffffffffffffff16815260200190815260200160002060006101000a81548160ff0219169083151502179055506001600260008282829054906101000a900460ff1661023f91906103b5565b92506101000a81548160ff021916908360ff160217905550565b600260009054906101000a900460ff1681565b60016020528060005260406000206000915054906101000a900460ff1681565b60008135905061029b816104b8565b92915050565b6000602082840312156102b357600080fd5b60006102c18482850161028c565b91505092915050565b6102d3816103fe565b82525050565b60006102e66018836103a4565b91506102f182610466565b602082019050919050565b60006103096011836103a4565b91506103148261048f565b602082019050919050565b6103288161042a565b82525050565b600060208201905061034360008301846102ca565b92915050565b60006020820190508181036000830152610362816102d9565b9050919050565b60006020820190508181036000830152610382816102fc565b9050919050565b600060208201905061039e600083018461031f565b92915050565b600082825260208201905092915050565b60006103c08261042a565b91506103cb8361042a565b92508260ff038211156103e1576103e0610437565b5b828201905092915050565b60006103f78261040a565b9050919050565b60008115159050919050565b600073ffffffffffffffffffffffffffffffffffffffff82169050919050565b600060ff82169050919050565b7f4e487b7100000000000000000000000000000000000000000000000000000000600052601160045260246000fd5b7f5573657220416c72656164792057686974656c69737465640000000000000000600082015250565b7f557365722043616e204265204164646564000000000000000000000000000000600082015250565b6104c1816103ec565b81146104cc57600080fd5b5056fea26469706673582212205ef5591a527644fa7173a9813851865bdbda3d8a4a4cd2b7965c6767167c60e564736f6c63430008040033",
  "linkReferences": {},
  "deployedLinkReferences": {}
}